{"abi":[{"type":"function","name":"execute","inputs":[{"name":"pairA","type":"address","internalType":"address"},{"name":"pairB","type":"address","internalType":"address"},{"name":"maxIn","type":"uint256","internalType":"uint256"},{"name":"step","type":"uint256","internalType":"uint256"}],"outputs":[],"stateMutability":"nonpayable"},{"type":"event","name":"TradeExecuted","inputs":[{"name":"amountIn","type":"uint256","indexed":false,"internalType":"uint256"},{"name":"profit","type":"uint256","indexed":false,"internalType":"uint256"}],"anonymous":false}],"bytecode":{"object":"0x6080806040523461001657610893908161001b8239f35b5f80fdfe6080806040526004361015610012575f80fd5b5f90813560e01c636142251c14610027575f80fd5b3461064e57608036600319011261064e576004356001600160a01b03811681036103de57602435916001600160a01b03831683036103ed57630240bc6b60e21b8082526060939084836004816001600160a01b0388165afa9485156104205786938796610628575b5060405191825280826004816001600160a01b0387165afa91821561061d57879188936105ea575b5050604051630dfe168160e01b81526020816004816001600160a01b038a165afa9081156104415788916105cb575b5060405163d21220a760e01b8152906020826004816001600160a01b0389165afa80156105a15761012c928a91610582575b506001600160a01b03918216911614610725565b60405163d21220a760e01b81526020816004816001600160a01b038a165afa9081156104415788916105ac575b50604051630dfe168160e01b8152906020826004816001600160a01b0389165afa80156105a15761019e928a9161058257506001600160a01b03918216911614610725565b86948594606435604435815b818111156105095750505085156104d857604051630dfe168160e01b8152899890916020836004816001600160a01b0388165afa9283156104cd578a936104ac575b5060405163d21220a760e01b81526020816004816001600160a01b0389165afa93841561046f578b91829561047a575b506040516323b872dd60e01b81523360048201526001600160a01b038781166024830152604482018d90529092602092849260649284929091165af1801561046f5761027c936001600160701b03928392610450575b50169116896107fd565b916040516102898161067a565b8981526001600160a01b0382163b1561044c5789916102c0916040519c8d8094819363022c0d9f60e01b8352308a60048501610779565b03926001600160a01b03165af180156104415761042b575b60405163a9059cbb60e01b81526001600160a01b038681166004830152602482018490529899509697959689969091602091839160449183918b91165af180156104205761033a946001600160701b039283926103f1575b50169216906107fd565b6040516103468161067a565b8381526001600160a01b0383163b156103ed5761037e9284928360405180968195829463022c0d9f60e01b8452339060048501610779565b03926001600160a01b03165af180156103e2576103ca575b507f589de19ac049f650e30154ebb6ba9be12c5394027648b0ff506705d197ec70866040848482519182526020820152a180f35b6103d390610652565b6103de57825f610396565b8280fd5b6040513d84823e3d90fd5b8380fd5b6104129060203d602011610419575b61040a8183610696565b810190610761565b505f610330565b503d610400565b6040513d88823e3d90fd5b949596610439602099610652565b9695946102d8565b6040513d8a823e3d90fd5b8980fd5b6104689060203d6020116104195761040a8183610696565b505f610272565b6040513d8d823e3d90fd5b602091955061049e90823d84116104a5575b6104968183610696565b810190610706565b949061021c565b503d61048c565b6104c691935060203d6020116104a5576104968183610696565b915f6101ec565b6040513d8c823e3d90fd5b60405162461bcd60e51b81526020600482015260096024820152681b9bc81c1c9bd99a5d60ba1b6044820152606490fd5b826105316001600160701b038d61052c828c169280808d169316908a16876107fd565b6107fd565b828111610548575b50610543916107dc565b6101aa565b8281039150811161056e57898111610562575b8390610539565b9099509750888261055b565b634e487b7160e01b8d52601160045260248dfd5b61059b915060203d6020116104a5576104968183610696565b5f610118565b6040513d8b823e3d90fd5b6105c5915060203d6020116104a5576104968183610696565b5f610159565b6105e4915060203d6020116104a5576104968183610696565b5f6100e6565b61060d935080919250903d10610616575b6106058183610696565b8101906106d0565b50905f806100b7565b503d6105fb565b6040513d89823e3d90fd5b908096506106439294503d8711610616576106058183610696565b50929092945f61008f565b5080fd5b67ffffffffffffffff811161066657604052565b634e487b7160e01b5f52604160045260245ffd5b6020810190811067ffffffffffffffff82111761066657604052565b90601f8019910116810190811067ffffffffffffffff82111761066657604052565b51906001600160701b03821682036106cc57565b5f80fd5b908160609103126106cc576106e4816106b8565b9160406106f3602084016106b8565b92015163ffffffff811681036106cc5790565b908160209103126106cc57516001600160a01b03811681036106cc5790565b1561072c57565b60405162461bcd60e51b815260206004820152600d60248201526c0e0c2d2e440dad2e6dac2e8c6d609b1b6044820152606490fd5b908160209103126106cc575180151581036106cc5790565b91939290935f83526020948584015260018060a01b03166040830152608060608301528051908160808401525f5b8281106107c857505060a09293505f838284010152601f8019910116010190565b81810186015184820160a0015285016107a7565b919082018092116107e957565b634e487b7160e01b5f52601160045260245ffd5b6103e5808202918083048214811517156107e9578402029281840414811517156107e9576103e8918281029281840414901517156107e95761083e916107dc565b908115610849570490565b634e487b7160e01b5f52601260045260245ffdfea26469706673582212209ba68aab20ca39b5fa97fc52981fda706724bdf8375d5f27b486e615ce52913364736f6c63430008140033","linkReferences":{}},"methodIdentifiers":{"execute(address,address,uint256,uint256)":"6142251c"},"id":1}