{"abi":[{"type":"function","name":"addExchange","inputs":[{"name":"name","type":"string","internalType":"string"},{"name":"router","type":"address","internalType":"address"}],"outputs":[{"name":"id","type":"uint256","internalType":"uint256"}],"stateMutability":"nonpayable"},{"type":"function","name":"addPool","inputs":[{"name":"pool","type":"address","internalType":"address"},{"name":"token0","type":"address","internalType":"address"},{"name":"token1","type":"address","internalType":"address"},{"name":"exchangeId","type":"uint256","internalType":"uint256"}],"outputs":[],"stateMutability":"nonpayable"},{"type":"function","name":"addToken","inputs":[{"name":"token","type":"address","internalType":"address"},{"name":"decimals","type":"uint8","internalType":"uint8"}],"outputs":[],"stateMutability":"nonpayable"},{"type":"function","name":"addTokens","inputs":[{"name":"tokens","type":"address[]","internalType":"address[]"},{"name":"decimals","type":"uint8[]","internalType":"uint8[]"}],"outputs":[],"stateMutability":"nonpayable"},{"type":"function","name":"getExchange","inputs":[{"name":"id","type":"uint256","internalType":"uint256"}],"outputs":[{"name":"","type":"tuple","internalType":"struct ExchangeLib.ExchangeInfo","components":[{"name":"name","type":"string","internalType":"string"},{"name":"router","type":"address","internalType":"address"},{"name":"enabled","type":"bool","internalType":"bool"}]}],"stateMutability":"view"},{"type":"function","name":"getExchangeCount","inputs":[],"outputs":[{"name":"","type":"uint256","internalType":"uint256"}],"stateMutability":"view"},{"type":"function","name":"getExchanges","inputs":[],"outputs":[{"name":"","type":"tuple[]","internalType":"struct ExchangeLib.ExchangeInfo[]","components":[{"name":"name","type":"string","internalType":"string"},{"name":"router","type":"address","internalType":"address"},{"name":"enabled","type":"bool","internalType":"bool"}]}],"stateMutability":"view"},{"type":"function","name":"getPool","inputs":[{"name":"pool","type":"address","internalType":"address"}],"outputs":[{"name":"","type":"tuple","internalType":"struct PoolLib.PoolInfo","components":[{"name":"token0","type":"address","internalType":"address"},{"name":"token1","type":"address","internalType":"address"},{"name":"exchangeId","type":"uint256","internalType":"uint256"},{"name":"enabled","type":"bool","internalType":"bool"}]}],"stateMutability":"view"},{"type":"function","name":"getPoolCount","inputs":[],"outputs":[{"name":"","type":"uint256","internalType":"uint256"}],"stateMutability":"view"},{"type":"function","name":"getPools","inputs":[],"outputs":[{"name":"","type":"address[]","internalType":"address[]"}],"stateMutability":"view"},{"type":"function","name":"getToken","inputs":[{"name":"token","type":"address","internalType":"address"}],"outputs":[{"name":"","type":"tuple","internalType":"struct TokenLib.TokenInfo","components":[{"name":"decimals","type":"uint8","internalType":"uint8"},{"name":"enabled","type":"bool","internalType":"bool"}]}],"stateMutability":"view"},{"type":"function","name":"getTokenCount","inputs":[],"outputs":[{"name":"","type":"uint256","internalType":"uint256"}],"stateMutability":"view"},{"type":"function","name":"getTokens","inputs":[],"outputs":[{"name":"","type":"address[]","internalType":"address[]"}],"stateMutability":"view"},{"type":"function","name":"isPoolEnabled","inputs":[{"name":"pool","type":"address","internalType":"address"}],"outputs":[{"name":"","type":"bool","internalType":"bool"}],"stateMutability":"view"},{"type":"function","name":"isTokenEnabled","inputs":[{"name":"token","type":"address","internalType":"address"}],"outputs":[{"name":"","type":"bool","internalType":"bool"}],"stateMutability":"view"},{"type":"function","name":"setExchangeEnabled","inputs":[{"name":"id","type":"uint256","internalType":"uint256"},{"name":"enabled","type":"bool","internalType":"bool"}],"outputs":[],"stateMutability":"nonpayable"},{"type":"function","name":"setPoolEnabled","inputs":[{"name":"pool","type":"address","internalType":"address"},{"name":"enabled","type":"bool","internalType":"bool"}],"outputs":[],"stateMutability":"nonpayable"},{"type":"function","name":"setTokenEnabled","inputs":[{"name":"token","type":"address","internalType":"address"},{"name":"enabled","type":"bool","internalType":"bool"}],"outputs":[],"stateMutability":"nonpayable"}],"bytecode":{"object":"0x608080604052346100165761142b908161001b8239f35b5f80fdfe604060808152600480361015610013575f80fd5b5f90813560e01c80630b9d584714610e7c57806313d59a8314610cd05780631e2e3a6b14610aff5780632798795a14610ac95780634c4523a614610a8b57806359770438146109e9578063673a2a1f1461094e57806369581898146106d7578063748538d9146106a157806378a89567146106635780638eec5d7014610625578063a74ea63f146105f2578063aa6ca8081461054a578063b27925ff14610495578063bbe4f6db146103d6578063fb93e5da14610248578063feaef9bd1461018e5763ff612cd0146100e3575f80fd5b3461018a578260031936011261018a578035906100fe611066565b918084525f805160206113d68339815191529182602052610121868620546111ad565b1561015457508352602052918120600101805460ff60a01b191692151560a01b60ff60a01b169290921790915580f35b80f35b606490602087519162461bcd60e51b8352820152601060248201526f65786368616e6765206d697373696e6760801b6044820152fd5b5080fd5b50913461018a578060031936011261018a576101a8610ff3565b906101b1611066565b9160018060a01b0316938484527f9cff66c0348144d548e1d853e2a1e81687b8d40edb52adef6b217b14ec4feb01908160205260ff83862054161561021557508394610151945260205283209061ff00825491151560081b169061ff001916179055565b606490602084519162461bcd60e51b8352820152600d60248201526c746f6b656e206d697373696e6760981b6044820152fd5b503461018a578260031936011261018a5767ffffffffffffffff9080358281116103d2576102799036908301611075565b90926024359081116103ce576102929036908401611075565b959061029d83611130565b946102aa8351968761110e565b8386526020938487019060051b8201913683116103a357905b8282106103ab575050506102d687611130565b966102e38351988961110e565b8088528388019060051b8201913683116103a757905b82821061038a57505050835186510361035757505050815b81518110156103535761034e906103496001600160a01b0361033383866111e5565b511660ff61034184896111e5565b5116906112af565b61118b565b610311565b8280f35b5162461bcd60e51b815291820152600f60248201526e0d8cadccee8d040dad2e6dac2e8c6d608b1b604482015260649150fd5b813560ff811681036103a35781529084019084016102f9565b8880fd5b8780fd5b81356001600160a01b03811681036103ca5781529085019085016102c3565b8980fd5b8480fd5b8380fd5b82843461018a57602036600319011261018a5790816080926103f6610ff3565b926103ff611167565b50610408611167565b506001600160a01b0393841681527f3d3ff1109b55fec8aa0fb0c1a802263897546ac48f762cb91dcb472b76f407d56020522081519190610448836110d6565b83815416938484528060018301541660208501908152606060ff60036002860154958789019687520154169501941515855283519586525116602085015251908301525115156060820152f35b503461018a578260031936011261018a576104ae610ff3565b6104b6611066565b9160018060a01b03809216908185527f3d3ff1109b55fec8aa0fb0c1a802263897546ac48f762cb91dcb472b76f407d59283602052868620541615610518575093600391849561015195526020528420019060ff801983541691151516179055565b606490602087519162461bcd60e51b8352820152600c60248201526b706f6f6c206d697373696e6760a01b6044820152fd5b5050346105ef57806003193601126105ef577f9cff66c0348144d548e1d853e2a1e81687b8d40edb52adef6b217b14ec4feb029182549261058a8461127d565b92805b8581106105a5578351806105a18782611023565b0390f35b8282527f6e57dbff476de205dddc9d57d8a327789e699b4afc629b0e11092fa826aa6a158101546105ea91906001600160a01b03166105e482886111e5565b5261118b565b61058d565b80fd5b82843461018a573660031901126105ef5761060b610ff3565b60243560ff8116810361062157610151916112af565b8280fd5b82843461018a578160031936011261018a576020907f3d3ff1109b55fec8aa0fb0c1a802263897546ac48f762cb91dcb472b76f407d6549051908152f35b82843461018a578160031936011261018a576020907f9cff66c0348144d548e1d853e2a1e81687b8d40edb52adef6b217b14ec4feb02549051908152f35b82843461018a57602036600319011261018a5760209060ff6106c96106c4610ff3565b611245565b5460081c1690519015158152f35b503461018a578260031936011261018a5780359267ffffffffffffffff918285116103d257366023860112156103d25784810135948386116103ce5736602487830101116103ce5761072761100d565b83519286602089819a6024601f1997610747858a601f860116018b61110e565b828a520183890137860101526001600160a01b0391821693841561091d577f9e53c3621b95d93ac0d3ea4bb0fd8278bb4efe432ca3f32eebd986397c6cc1b7968754976107938961118b565b90558651916107a1836110a6565b825289820195865286820194600193848752898b525f805160206113d68339815191528c52888b20935190815193841161090a57508b6107e185546111ad565b601f81116108c2575b50508b91601f84116001146108615750908291610850999a9b92610856575b50505f19600383901b1c191690831b1781555b019251166001600160601b0360a01b83541617825551151581549060ff60a01b90151560a01b169060ff60a01b1916179055565b51908152f35b015190505f80610809565b839b93168484528c8420935b8d8282106108ae575050918593918c6108509b9c9d9410610896575b505050811b01815561081c565b01515f1960f88460031b161c191690555f8080610889565b83850151865594870194938401930161086d565b858d52818d2090601f860160051c8201928610610900575b601f0160051c019086905b8281106108f557508d91506107ea565b8d81550186906108e5565b90915081906108da565b634e487b7160e01b8c526041905260248bfd5b855162461bcd60e51b81528083018a9052600b60248201526a3d32b937903937baba32b960a91b6044820152606490fd5b5050346105ef57806003193601126105ef577f3d3ff1109b55fec8aa0fb0c1a802263897546ac48f762cb91dcb472b76f407d69182549261098e8461127d565b92805b8581106109a5578351806105a18782611023565b8282527f4292a41d0bbcaa2ddf074acbd09c985b25675965ea5c85b4fab56861d1b7d0b58101546109e491906001600160a01b03166105e482886111e5565b610991565b5050346105ef57602090816003193601126105ef578290610a08610ff3565b81848451610a15816110f2565b828152015281848451610a27816110f2565b82815201526001600160a01b031681527f9cff66c0348144d548e1d853e2a1e81687b8d40edb52adef6b217b14ec4feb0183522082519190610a68836110f2565b5460ff8281831694858152019160081c1615158152835192835251151590820152f35b82843461018a578160031936011261018a576020907f9e53c3621b95d93ac0d3ea4bb0fd8278bb4efe432ca3f32eebd986397c6cc1b7549051908152f35b82843461018a57602036600319011261018a5760209060ff6003610af3610aee610ff3565b61120d565b01541690519015158152f35b5050346105ef57806003193601126105ef577f9e53c3621b95d93ac0d3ea4bb0fd8278bb4efe432ca3f32eebd986397c6cc1b754610b3c81611130565b90610b498451928361110e565b808252601f19610b5882611130565b01835b818110610cb9575050825b818110610bca575050825191602080840190808552835180925280868601968360051b870101940192955b828710610b9e5785850386f35b909192938280610bba600193603f198a82030186528851610f8b565b9601920196019592919092610b91565b80845260205f805160206113d6833981519152815285852090865191610bef836110a6565b87518154919088610bff846111ad565b808352600194808616908115610c9f5750600114610c6f575b509181610c3060ff9593610c6a99989795038261110e565b855201546001600160a01b0381169184019190915260a01c16151587820152610c5982866111e5565b52610c6481856111e5565b5061118b565b610b66565b838b52858b208b92505b818310610c8c5750508101840181610c18565b8054848401880152918601918501610c79565b60ff19168488015250151560051b82018501905081610c18565b602090610cc4611148565b82828701015201610b5b565b50913461018a57608036600319011261018a57610ceb610ff3565b610cf361100d565b916001600160a01b03906044358281169190829003610e78578284168015610e495783610d1f8661120d565b541615610da4575b509161015194939183826003955196610d3f886110d6565b16865260208601918252850191606435835280610d6360608801956001875261120d565b965116906001600160601b0360a01b9182885416178755600187019251169082541617905551600284015551151591019060ff801983541691151516179055565b7f3d3ff1109b55fec8aa0fb0c1a802263897546ac48f762cb91dcb472b76f407d6805490600160401b821015610e365760018201808255821015610e235788527f4292a41d0bbcaa2ddf074acbd09c985b25675965ea5c85b4fab56861d1b7d0b50180546001600160a01b031916909117905594955085946003610d27565b634e487b7160e01b895260328a52602489fd5b634e487b7160e01b895260418a52602489fd5b815162461bcd60e51b81526020818a015260096024820152681e995c9bc81c1bdbdb60ba1b6044820152606490fd5b8580fd5b50823461062157602091826003193601126103d257610e99611148565b50610ea2611148565b503583525f805160206113d6833981519152825280832092815193610ec6856110a6565b825182825493610ed5856111ad565b908184526001958887821691825f14610f69575050600114610f34575b50509181610f096105a196959360ff95038261110e565b875201546001600160a01b0381168587015260a01c1615158185015251828152928392830190610f8b565b908792508482528282205b818310610f5457505082010181610f09610ef2565b80548386018501528893909201918601610f3f565b60ff19168187015292151560051b85019092019250839150610f099050610ef2565b9190825192606082528351908160608401525f5b828110610fdd575060809394506040905f85848601015260018060a01b036020820151166020850152015115156040830152601f8019910116010190565b8060208092880101516080828701015201610f9f565b600435906001600160a01b038216820361100957565b5f80fd5b602435906001600160a01b038216820361100957565b602090816040818301928281528551809452019301915f5b828110611049575050505090565b83516001600160a01b03168552938101939281019260010161103b565b60243590811515820361100957565b9181601f840112156110095782359167ffffffffffffffff8311611009576020808501948460051b01011161100957565b6060810190811067ffffffffffffffff8211176110c257604052565b634e487b7160e01b5f52604160045260245ffd5b6080810190811067ffffffffffffffff8211176110c257604052565b6040810190811067ffffffffffffffff8211176110c257604052565b90601f8019910116810190811067ffffffffffffffff8211176110c257604052565b67ffffffffffffffff81116110c25760051b60200190565b60405190611155826110a6565b5f604083606081528260208201520152565b60405190611174826110d6565b5f6060838281528260208201528260408201520152565b5f1981146111995760010190565b634e487b7160e01b5f52601160045260245ffd5b90600182811c921680156111db575b60208310146111c757565b634e487b7160e01b5f52602260045260245ffd5b91607f16916111bc565b80518210156111f95760209160051b010190565b634e487b7160e01b5f52603260045260245ffd5b6001600160a01b03165f9081527f3d3ff1109b55fec8aa0fb0c1a802263897546ac48f762cb91dcb472b76f407d56020526040902090565b6001600160a01b03165f9081527f9cff66c0348144d548e1d853e2a1e81687b8d40edb52adef6b217b14ec4feb016020526040902090565b9061128782611130565b611294604051918261110e565b82815280926112a5601f1991611130565b0190602036910137565b6001600160a01b038116919082156113a35760ff6112cc82611245565b541615611326575b611324925060ff604051926112e8846110f2565b16825260ff6112fe602084019260018452611245565b92511660ff1983541617825551151561ff00825491151560081b169061ff001916179055565b565b7f9cff66c0348144d548e1d853e2a1e81687b8d40edb52adef6b217b14ec4feb02928354600160401b8110156110c257600181018086558110156111f957611324945f527f6e57dbff476de205dddc9d57d8a327789e699b4afc629b0e11092fa826aa6a1501906001600160601b0360a01b8254161790556112d4565b60405162461bcd60e51b815260206004820152600a6024820152693d32b937903a37b5b2b760b11b6044820152606490fdfe9e53c3621b95d93ac0d3ea4bb0fd8278bb4efe432ca3f32eebd986397c6cc1b6a26469706673582212203e687d896e25b147ddc7bcd03111e29efcd2e68a0dd68eca713732815afa224064736f6c63430008140033","linkReferences":{}},"methodIdentifiers":{"addExchange(string,address)":"69581898","addPool(address,address,address,uint256)":"13d59a83","addToken(address,uint8)":"a74ea63f","addTokens(address[],uint8[])":"fb93e5da","getExchange(uint256)":"0b9d5847","getExchangeCount()":"4c4523a6","getExchanges()":"1e2e3a6b","getPool(address)":"bbe4f6db","getPoolCount()":"8eec5d70","getPools()":"673a2a1f","getToken(address)":"59770438","getTokenCount()":"78a89567","getTokens()":"aa6ca808","isPoolEnabled(address)":"2798795a","isTokenEnabled(address)":"748538d9","setExchangeEnabled(uint256,bool)":"ff612cd0","setPoolEnabled(address,bool)":"b27925ff","setTokenEnabled(address,bool)":"feaef9bd"},"id":8}