{"abi":[{"type":"function","name":"execute","inputs":[{"name":"targets","type":"address[]","internalType":"address[]"},{"name":"data","type":"bytes[]","internalType":"bytes[]"}],"outputs":[],"stateMutability":"nonpayable"}],"bytecode":{"object":"0x6080806040523461001657610277908161001b8239f35b5f80fdfe608060409080825260049182361015610016575f80fd5b5f92833560e01c63c8d18a451461002b575f80fd5b346101b057816003193601126101b05767ffffffffffffffff81358181116102085761005a903690840161020c565b939091602495863582811161020457610076903690870161020c565b9490918588036101d257508897985b878110610090578880f35b600581901b82810135906001600160a01b03821682036101ce57878310156101bc5799809b9a850135601e19863603018112156101b8578501918235908782116101b45760208094019180360383136101b057838093828c519384928337810182815203925af13d156101ab573d86811161019957875190601f19603f81601f840116011682018281108982111761018757895281528c833d92013e5b1561015857505f19811461014657600101989798610085565b634e487b7160e01b8a5260118752888afd5b87600b8b60649389519362461bcd60e51b85528401528201526a18d85b1b0819985a5b195960aa1b6044820152fd5b634e487b7160e01b8f5260418c528d8ffd5b634e487b7160e01b8d5260418a528b8dfd5b61012d565b8380fd5b8280fd5b5080fd5b634e487b7160e01b8b52603289528b8bfd5b8a80fd5b62461bcd60e51b8152602087820152600f898201526e0d8cadccee8d040dad2e6dac2e8c6d608b1b6044820152606490fd5b8880fd5b8580fd5b9181601f8401121561023d5782359167ffffffffffffffff831161023d576020808501948460051b01011161023d57565b5f80fdfea2646970667358221220ad0f3bfd42de1340971f1715344856e8af4a00dc2f0893372981cef161d1712864736f6c63430008140033","linkReferences":{}},"methodIdentifiers":{"execute(address[],bytes[])":"c8d18a45"},"id":2}