{"abi":[{"type":"constructor","inputs":[{"name":"_token0","type":"address","internalType":"address"},{"name":"_token1","type":"address","internalType":"address"}],"stateMutability":"nonpayable"},{"type":"function","name":"getReserves","inputs":[],"outputs":[{"name":"","type":"uint112","internalType":"uint112"},{"name":"","type":"uint112","internalType":"uint112"},{"name":"","type":"uint32","internalType":"uint32"}],"stateMutability":"view"},{"type":"function","name":"setReserves","inputs":[{"name":"r0","type":"uint112","internalType":"uint112"},{"name":"r1","type":"uint112","internalType":"uint112"}],"outputs":[],"stateMutability":"nonpayable"},{"type":"function","name":"swap","inputs":[{"name":"amount0Out","type":"uint256","internalType":"uint256"},{"name":"amount1Out","type":"uint256","internalType":"uint256"},{"name":"to","type":"address","internalType":"address"},{"name":"","type":"bytes","internalType":"bytes"}],"outputs":[],"stateMutability":"nonpayable"},{"type":"function","name":"token0","inputs":[],"outputs":[{"name":"","type":"address","internalType":"address"}],"stateMutability":"view"},{"type":"function","name":"token1","inputs":[],"outputs":[{"name":"","type":"address","internalType":"address"}],"stateMutability":"view"}],"bytecode":{"object":"0x60803461008c57601f6108ee38819003918201601f19168301916001600160401b0383118484101761009057808492604094855283398101031261008c57610052602061004b836100a4565b92016100a4565b5f80546001600160a01b039384166001600160a01b0319918216179091556001805492909316911617905560405161083590816100b98239f35b5f80fd5b634e487b7160e01b5f52604160045260245ffd5b51906001600160a01b038216820361008c5756fe6080604081815260049182361015610015575f80fd5b5f92833560e01c918263022c0d9f146103ea575081630902f1ac146103b25781630dfe16811461038a57816375ea5f2e14610084575063d21220a714610059575f80fd5b3461008057816003193601126100805760015490516001600160a01b039091168152602090f35b5080fd5b9050346101e357816003193601126101e357828135916001600160701b03938484168094036101e3576024359485169182860361038657835482516370a0823160e01b80825230848301529460209290916001600160a01b03918216908481602481855afa90811561037c57908a918a91610347575b5010610272575b5060015416948451818152308582015283816024818a5afa908115610268578891610236575b508211610157575b600280546001600160e01b031916891760708b901b600160701b600160e01b03161790558680f35b845190815230848201528281602481895afa92831561022c5787936101f4575b505090610183916107ad565b833b156101f05782516340c10f1960e01b815230928101928352602083019190915292849184919082908490829060400103925af19081156101e757506101cf575b808080808061012f565b6101d890610763565b6101e357825f6101c5565b8280fd5b513d84823e3d90fd5b8480fd5b809297508193503d8311610225575b61020d818361078b565b81010312610221575187946101835f610177565b5f80fd5b503d610203565b85513d89823e3d90fd5b809850848092503d8311610261575b61024f818361078b565b8101031261022157818a975190610127565b503d610245565b86513d8a823e3d90fd5b85999897995187815230868201528481602481855afa801561033d578b9061030e575b6102a09150896107ad565b813b1561030a5786516340c10f1960e01b81523087820190815260208101929092529b8b928d928390036040019183915af18015610300576102e8575b889998969798610101565b95969790986102f690610763565b96959488906102dd565b85513d8b823e3d90fd5b8a80fd5b508481813d8311610336575b610324818361078b565b8101031261030a576102a09051610295565b503d61031a565b87513d8d823e3d90fd5b809250868092503d8311610375575b610360818361078b565b81010312610371578990515f6100fa565b8880fd5b503d610356565b87513d8b823e3d90fd5b8380fd5b505034610080578160031936011261008057905490516001600160a01b039091168152602090f35b505034610080578160031936011261008057606091600254918051926001600160701b0390818116855260701c166020840152820152f35b84918434610386576080366003190112610386576001600160a01b0392602492908335906044359083359087831683036103715760643567ffffffffffffffff80821161030a573660238301121561030a578187013590811161030a573691018801116103715781610681575b50508161057d575b50508385541690825190816370a0823160e01b938482523083830152818760209586935afa90811561057357908392918991610538575b506001600160701b03169560025497876001600160701b03198a1617600255600154169486519586938492835230908301525afa92831561052f57508592610501575b50506001600160e01b03199092161760709190911b600160701b600160e01b03161760025580f35b90809250813d8311610528575b610518818361078b565b81010312610386575184806104d9565b503d61050e565b513d87823e3d90fd5b83819492503d831161056c575b61054f818361078b565b81010312610568576001600160701b0383925190610496565b8780fd5b503d610545565b85513d8a823e3d90fd5b6002546001600160701b03808260701c1680851161064f5791602093916105b661060296946001600160701b0360701b928616906107ce565b60701b16906001600160701b0360701b19161760025587600154169089875180968195829463a9059cbb60e01b84528a840160209093929193604081019460018060a01b031681520152565b03925af1801561064557610617575b8061045f565b6106379060203d811161063e575b61062f818361078b565b8101906107e7565b5085610611565b503d610625565b83513d88823e3d90fd5b865162461bcd60e51b8152602081880152600d818a01526c696e73756666696369656e743160981b6044820152606490fd5b600254906001600160701b039081831690818511610733575092602092826106b08d96610700958516906107ce565b6dffffffffffffffffffffffffffff199092169116176002558354885163a9059cbb60e01b81526001600160a01b0387168982019081526020810193909352948593918c16928492839160400190565b03925af1801561057357610715575b80610457565b61072c9060203d811161063e5761062f818361078b565b508761070f565b62461bcd60e51b8152602088820152600d8a8201526c0696e73756666696369656e743609c1b6044820152606490fd5b67ffffffffffffffff811161077757604052565b634e487b7160e01b5f52604160045260245ffd5b90601f8019910116810190811067ffffffffffffffff82111761077757604052565b919082039182116107ba57565b634e487b7160e01b5f52601160045260245ffd5b6001600160701b0391821690821603919082116107ba57565b9081602091031261022157518015158103610221579056fea26469706673582212203158f2da35847d2ab32a6b3b87f2b94698ea330fe2b94ce16c1e88d062a3834164736f6c63430008140033","linkReferences":{}},"methodIdentifiers":{"getReserves()":"0902f1ac","setReserves(uint112,uint112)":"75ea5f2e","swap(uint256,uint256,address,bytes)":"022c0d9f","token0()":"0dfe1681","token1()":"d21220a7"},"id":5}