{"abi":[{"type":"function","name":"findOptimal","inputs":[{"name":"rAB0","type":"uint256","internalType":"uint256"},{"name":"rAB1","type":"uint256","internalType":"uint256"},{"name":"rBC0","type":"uint256","internalType":"uint256"},{"name":"rBC1","type":"uint256","internalType":"uint256"},{"name":"rCA0","type":"uint256","internalType":"uint256"},{"name":"rCA1","type":"uint256","internalType":"uint256"},{"name":"maxIn","type":"uint256","internalType":"uint256"},{"name":"step","type":"uint256","internalType":"uint256"}],"outputs":[{"name":"bestIn","type":"uint256","internalType":"uint256"},{"name":"bestProfit","type":"uint256","internalType":"uint256"}],"stateMutability":"pure"}],"bytecode":{"object":"0x6080806040523461001657610194908161001b8239f35b5f80fdfe6080604052600480361015610012575f80fd5b5f803560e01c636f6912d014610026575f80fd5b346100da576101003660031901126100da57602491819060e4359060c435908360a4356084356064356044358a358635895b898111156100705760408d8d82519182526020820152f35b61008a878761008588886100858989896100fe565b6100fe565b818111156100d3578181039081116100c1575b8c81116100b5575b508a6100b0916100dd565b610058565b909c509a508b8a6100a5565b634e487b7160e01b895260118a528e89fd5b508761009d565b80fd5b919082018092116100ea57565b634e487b7160e01b5f52601160045260245ffd5b6103e5808202918083048214811517156100ea578402029281840414811517156100ea576103e8918281029281840414901517156100ea5761013f916100dd565b90811561014a570490565b634e487b7160e01b5f52601260045260245ffdfea2646970667358221220b7b66f6f7f4ba774e9e1d4bba9cb11244cee89de3192a9e7ecf44bbf084f283164736f6c63430008140033","linkReferences":{}},"methodIdentifiers":{"findOptimal(uint256,uint256,uint256,uint256,uint256,uint256,uint256,uint256)":"6f6912d0"},"id":9}