{"abi":[{"type":"function","name":"setValue","inputs":[{"name":"v","type":"uint256","internalType":"uint256"}],"outputs":[],"stateMutability":"nonpayable"},{"type":"function","name":"value","inputs":[],"outputs":[{"name":"","type":"uint256","internalType":"uint256"}],"stateMutability":"view"}],"bytecode":{"object":"0x60808060405234601457609d90816100198239f35b5f80fdfe60808060405260043610156011575f80fd5b5f90813560e01c9081633fa4f24514604b57506355241077146031575f80fd5b346048576020366003190112604857600435815580f35b80fd5b90503460635781600319360112606357602091548152f35b5080fdfea26469706673582212202341ce1106057cfc892bfc3a4202997ca0a9dd604deb54610b3cba50be49a63b64736f6c63430008140033","linkReferences":{}},"methodIdentifiers":{"setValue(uint256)":"55241077","value()":"3fa4f245"},"id":6}