{"abi":[{"type":"function","name":"findOptimal","inputs":[{"name":"rA0","type":"uint256","internalType":"uint256"},{"name":"rB0","type":"uint256","internalType":"uint256"},{"name":"rA1","type":"uint256","internalType":"uint256"},{"name":"rB1","type":"uint256","internalType":"uint256"},{"name":"maxIn","type":"uint256","internalType":"uint256"},{"name":"step","type":"uint256","internalType":"uint256"}],"outputs":[{"name":"bestIn","type":"uint256","internalType":"uint256"},{"name":"bestProfit","type":"uint256","internalType":"uint256"}],"stateMutability":"pure"}],"bytecode":{"object":"0x608080604052346100165761018b908161001b8239f35b5f80fdfe6080604052600480361015610012575f80fd5b5f90813560e01c635cb873f314610027575f80fd5b346100d05760c03660031901126100d05760249190819060a43590608435908360443560643588358435875b8781111561006b5760408b8b82519182526020820152f35b610080858561007b8686866100f5565b6100f5565b818111156100c9578181039081116100b7575b8a81116100ab575b50886100a6916100d4565b610053565b909a509850898861009b565b634e487b7160e01b8752601188528c87fd5b5085610093565b5080fd5b919082018092116100e157565b634e487b7160e01b5f52601160045260245ffd5b6103e5808202918083048214811517156100e1578402029281840414811517156100e1576103e8918281029281840414901517156100e157610136916100d4565b908115610141570490565b634e487b7160e01b5f52601260045260245ffdfea2646970667358221220f686da59306f9e5e1db3d19fdab9a3414509ab6ba275cdaedb7f4d948042d29764736f6c63430008140033","linkReferences":{}},"methodIdentifiers":{"findOptimal(uint256,uint256,uint256,uint256,uint256,uint256)":"5cb873f3"},"id":0}